:020000040000fa
:080000000002040000000000f2
:020000040000fa
:100008009a0200009a0200009a0200009a02000078
:100018009a0200009a0200009a0200009a02000068
:100028009a0200009a0200009a0200009a02000058
:100038009a0200009a0200009a0200009a02000048
:020000040000fa
:020000040000fa
:100400000f8020000e7f22000e01880000000000f7
:10041000000020000000e000020032000001200087
:10042000200288000c000700c0c12000010020004d
:1004300011000700000020000000e0000200320070
:100440000000020000000000180c02000000000084
:100450000040da000000fe004440a90000602000d7
:100460000000e0000300320000002000a00188002e
:100470004440a80000000600910188008000780038
:100480000000eb0015003700e280400032a0b4000d
:100490009101ba00e280400032a0b4009102ba009b
:1004a000e280400032a0b4000002eb00472bde00e7
:1004b000f507b200602ce10004003a000059eb009f
:1004c0008301e900fdff3e00040037006128e100e0
:1004d000010032000082eb00040007001101ba00a5
:1004e0000200e000e8ff3a00000006003159ba00bf
:1004f0008301e9000c0032002159ba008301e900b0
:10050000080032000400e00003003a00e2804000ee
:1005100032a0b400f5ff370011d9ba008301e90019
:10052000faff3a008100e800e180400032a0b40008
:0c053000000006000040da000000fe00a1
:020000040000fa
:10053c0000000000c9000000920100005b020000f6
:10054c0024030000ed030000b60400007e0500004b
:10055c004706000010070000d9070000a1080000a2
:10056c006a090000320a0000fb0a0000c30b0000fd
:10057c008b0c0000530d00001b0e0000e30e00005e
:10058c00ab0f0000721000003911000000120000c7
:10059c00c71200008e130000551400001b1500003c
:1005ac00e1150000a71600006d17000033180000bd
:1005bc00f8180000bd190000821a0000461b00004c
:1005cc000b1c0000cf1c0000931d0000561e0000e9
:1005dc00191f0000dc1f00009f200000612100009b
:1005ec0023220000e4220000a62300006724000060
:1005fc0027250000e7250000a7260000672700003c
:10060c0026280000e5280000a3290000612a00002c
:10061c001e2b0000db2b0000982c0000542d00003a
:10062c00102e0000cc2e0000862f00004130000060
:10063c00fb300000b43100006d32000026330000a6
:10064c00de330000963400004d3500000336000008
:10065c00b93600006f37000024380000d83800008d
:10066c008c3900003f3a0000f23a0000a43b000035
:10067c00563c0000073d0000b73d0000673e0000ff
:10068c00163f0000c53f00007340000020410000f1
:10069c00cd4100007942000025430000d04300000a
:1006ac007a44000023450000cc450000744600004d
:1006bc001c470000c3470000694800000e490000b9
:1006cc00b3490000574a0000fa4a00009d4b000055
:1006dc003f4c0000e04c0000804d0000204e00001c
:1006ec00bf4e00005d4f0000fa4f00009750000015
:1006fc0033510000ce51000068520000015300003d
:10070c009a53000032540000c95400005f55000099
:10071c00f4550000895600001d570000b05700002a
:10072c0042580000d358000063590000f3590000f0
:10073c00815a00000f5b00009c5b0000285c0000ed
:10074c00b35c00003d5d0000c65d00004f5e000024
:10075c00d65e00005d5f0000e25f00006760000095
:10076c00eb6000006e610000f0610000716200003f
:10077c00f162000070630000ee6300006b64000027
:10078c00e764000062650000dd650000566600004d
:10079c00ce66000045670000bc67000031680000b1
:1007ac00a5680000196900008b690000fc69000055
:1007bc006c6a0000db6a00004a6b0000b76b00003b
:1007cc00236c00008e6c0000f86c0000616d000062
:1007dc00c96d0000306e0000956e0000fa6e0000ce
:1007ec005e6f0000c06f000022700000827000007d
:1007fc00e1700000407100009d710000f971000073
:10080c0054720000ae720000067300005e730000ac
:10081c00b57300000a7400005e740000b17400002f
:10082c000375000054750000a4750000f3750000fa
:10083c00407600008d760000d8760000227700000c
:10084c006b770000b3770000f97700003f78000069
:10085c0083780000c6780000087900004979000010
:10086c0089790000c7790000047a0000417a000001
:10087c007c7a0000b57a0000ee7a0000257b00003f
:10088c005c7b0000917b0000c47b0000f77b0000c8
:10089c00297c0000597c0000887c0000b67c00009c
:1008ac00e27c00000e7d0000387d0000617d0000c0
:1008bc00897d0000b07d0000d57d0000f97d000031
:1008cc001c7e00003e7e00005e7e00007e7e0000ee
:1008dc009c7e0000b97e0000d47e0000ef7e0000fc
:1008ec00087f0000207f0000377f00004c7f000055
:1008fc00617f0000747f0000867f0000967f0000ff
:10090c00a67f0000b47f0000c17f0000cd7f0000f7
:10091c00d77f0000e07f0000e87f0000ef7f000041
:10092c00f57f0000f97f0000fc7f0000fe7f0000d7
:10093c00ff7f0000fe7f0000fc7f0000f97f0000bd
:10094c00f57f0000ef7f0000e87f0000e07f0000f3
:10095c00d77f0000cd7f0000c17f0000b47f000076
:10096c00a67f0000967f0000867f0000747f000049
:10097c00617f00004c7f0000377f0000207f00006b
:10098c00087f0000ef7e0000d47e0000b97e0000de
:10099c009c7e00007e7e00005e7e00003e7e00009d
:1009ac001c7e0000f97d0000d57d0000b07d0000ac
:1009bc00897d0000617d0000387d00000e7d000007
:1009cc00e27c0000b67c0000887c0000597c0000b2
:1009dc00297c0000f77b0000c47b0000917b0000a9
:1009ec005c7b0000257b0000ee7a0000b57a0000ed
:1009fc007c7a0000417a0000047a0000c77900007c
:100a0c00897900004979000008790000c678000057
:100a1c00837800003f780000f9770000b37700007e
:100a2c006b77000022770000d87600008d760000ee
:100a3c0040760000f3750000a475000054750000aa
:100a4c0003750000b17400005e7400000a740000ad
:100a5c00b57300005e73000006730000ae720000f8
:100a6c0054720000f97100009d710000407100008b
:100a7c00e17000008270000022700000c06f000066
:100a8c005e6f0000fa6e0000956e0000306e000084
:100a9c00c96d0000616d0000f86c00008e6c0000e8
:100aac00236c0000b76b00004a6b0000db6a00008f
:100abc006c6a0000fc6900008b6900001969000079
:100acc00a568000031680000bc67000045670000a5
:100adc00ce66000056660000dd6500006265000011
:100aec00e76400006b640000ee63000070630000bc
:100afc00f162000071620000f06100006e610000a4
:100b0c00eb60000067600000e25f00005d5f0000ca
:100b1c00d65e00004f5e0000c65d00003d5d00002b
:100b2c00b35c0000285c00009c5b00000f5b0000c5
:100b3c00815a0000f359000063590000d35800009b
:100b4c0042580000b05700001d57000089560000a5
:100b5c00f45500005f550000c954000032540000e9
:100b6c009a5300000153000068520000ce5100005f
:100b7c003351000097500000fa4f00005d4f000009
:100b8c00bf4e0000204e0000804d0000e04c0000e5
:100b9c003f4c00009d4b0000fa4a0000574a0000f1
:100bac00b34900000e49000069480000c34700002b
:100bbc001c47000074460000cc4500002345000093
:100bcc007a440000d0430000254300007942000025
:100bdc00cd4100002041000073400000c53f0000e3
:100bec00163f0000673e0000b73d0000073d0000c7
:100bfc00563c0000a43b0000f23a00003f3a0000d3
:100c0c008c390000d8380000243800006f37000001
:100c1c00b9360000033600004d3500009634000054
:100c2c00de330000263300006d320000b4310000ca
:100c3c00fb30000041300000862f0000cc2e00005d
:100c4c00102e0000542d0000982c0000db2b00000f
:100c5c001e2b0000612a0000a3290000e5280000db
:100c6c002628000067270000a7260000e7250000c3
:100c7c002725000067240000a6230000e4220000c2
:100c8c0023220000612100009f200000dc1f0000d7
:100c9c00191f0000561e0000931d0000cf1c000001
:100cac000b1c0000461b0000821a0000bd1900003e
:100cbc00f8180000331800006d170000a71600008c
:100ccc00e11500001b150000551400008e130000e8
:100cdc00c712000000120000391100007210000051
:100cec00ab0f0000e30e00001b0e0000530d0000c4
:100cfc008b0c0000c30b0000fb0a0000320a000042
:100d0c006a090000a1080000d907000010070000c4
:100d1c00470600007e050000b6040000ed0300004d
:100d2c00240300005b02000092010000c9000000d7
:100d3c000000000037ff00006efe0000a5fd000063
:100d4c00dcfc000013fc00004afb000082fa0000ef
:100d5c00b9f90000f0f8000027f800005ff7000078
:100d6c0096f60000cef5000005f500003df40000fd
:100d7c0075f30000adf20000e5f100001df100007c
:100d8c0055f000008eef0000c7ee000000ee0000f2
:100d9c0039ed000072ec0000abeb0000e5ea00005e
:100dac001fea000059e9000093e80000cde70000bd
:100dbc0008e7000043e600007ee50000bae400000e
:100dcc00f5e3000031e300006de20000aae1000051
:100ddc00e7e0000024e0000061df00009fde00007f
:100dec00dddd00001cdd00005adc000099db00009a
:100dfc00d9da000019da000059d9000099d800009e
:100e0c00dad700001bd700005dd600009fd500008c
:100e1c00e2d4000025d4000068d30000acd200005e
:100e2c00f0d1000034d100007ad00000bfcf000018
:100e3c0005cf00004cce000093cd0000dacc0000b2
:100e4c0022cc00006acb0000b3ca0000fdc9000030
:100e5c0047c9000091c80000dcc7000028c700008b
:100e6c0074c60000c1c500000ec500005cc40000c3
:100e7c00aac30000f9c2000049c2000099c10000d9
:100e8c00eac000003bc000008dbf0000e0be0000c7
:100e9c0033be000087bd0000dbbc000030bc00008e
:100eac0086bb0000ddba000034ba00008cb900002b
:100ebc00e4b800003db8000097b70000f2b600009f
:100ecc004db60000a9b5000006b5000063b40000e3
:100edc00c1b3000020b3000080b20000e0b10000fc
:100eec0041b10000a3b0000006b0000069af0000e3
:100efc00cdae000032ae000098ad0000ffac00009b
:100f0c0066ac0000ceab000037ab0000a1aa00001d
:100f1c000caa000077a90000e3a8000050a800006c
:100f2c00bea700002da700009da600000da6000086
:100f3c007fa50000f1a4000064a40000d8a3000069
:100f4c004da30000c3a200003aa20000b1a1000012
:100f5c002aa10000a3a000001ea00000999f000081
:100f6c00159f0000929e0000109e00008f9d0000b7
:100f7c000f9d0000909c0000129c0000959b0000af
:100f8c00199b00009e9a0000239a0000aa99000069
:100f9c0032990000bb98000044980000cf970000e5
:100fac005b970000e7960000759600000496000021
:100fbc009495000025950000b6940000499400001b
:100fcc00dd93000072930000089300009f920000d4
:100fdc0037920000d09100006b9100000691000048
:100fec00a290000040900000de8f00007e8f000079
:100ffc001f8f0000c08e0000638e0000078e000063
:10100c00ac8d0000528d0000fa8c0000a28c000008
:10101c004b8c0000f68b0000a28b00004f8b000065
:10102c00fd8a0000ac8a00005c8a00000d8a00007a
:10103c00c08900007389000028890000de88000048
:10104c00958800004d88000007880000c1870000cb
:10105c007d8700003a870000f8860000b786000004
:10106c007786000039860000fc850000bf850000f3
:10107c00848500004b85000012850000db84000095
:10108c00a48400006f8400003c84000009840000ec
:10109c00d7830000a7830000788300004a830000f8
:1010ac001e830000f2820000c88200009f820000b4
:1010bc0077820000508200002b8200000782000023
:1010cc00e4810000c2810000a28100008281000046
:1010dc0064810000478100002c8100001181000018
:1010ec00f8800000e0800000c9800000b48000009f
:1010fc009f8000008c8000007a8000006a800000d5
:10110c005a8000004c8000003f80000033800000bb
:10111c002980000020800000188000001180000051
:10112c000b8000000780000004800000028000009b
:020000040000fa
:10113c003800fa00101f9800211f9800321f9800e9
:10114c006022b800048fbe00150020003e1a9000eb
:10115c00042add00cfa2de00040f9800150f9800c2
:10116c000e0a90009e0a900061025200e0825a0022
:10117c00240f9800350f980014002000341f98009d
:10118c005f0037000e0a90009e0a900044079800fa
:10119c00550798004e029000de0290008582d10027
:1011ac000482d30044079800550798004e02900023
:1011bc00de0290003e034200ae834a002e0a9000ed
:1011cc00be0a9000840f5300858f5b00f1ff3c003a
:1011dc004e029000de02900061035200e0835a0040
:1011ec001e02be0006007800070378008403780016
:1011fc00050278000700600004026300050020006f
:10120c00c022dd00040020000403be006102b8000f
:10121c0004037300858373004e029000de0290007d
:10122c00041f430005974b003e1a9000cfa2de002e
:10123c00be0f5200ae8f5a002d003d003e1a90009a
:10124c00040242009e1a900004824200940278002c
:10125c00450f98003e1a9000040242009e1a90001e
:10126c00848242001e027800040242001e1b900081
:10127c000402430014027800840a78001e027800ed
:10128c00040242009e1a9000048242004e0b900011
:10129c00060a78003e1a900004024200ae1a900032
:1012ac000482420094027800550f98003e1a900078
:1012bc0004024200ae1a9000848242001e027800a2
:1012cc00040242002e1b900004024300140278001a
:1012dc00840a78001e02780004024200ae1a9000c4
:1012ec00048242005e0b9000060a78000100370071
:1012fc00000000003e1a90000402e800341f980021
:10130c003e1a90006123b9002e0a9000be0a90008c
:10131c00840f5300858f5b009aff3400140020006b
:10132c000500200044079800550798009400200001
:10133c0005002000640798007507980030013700fd
:10134c004e029000de0290000402420085824a00a8
:10135c00640f9800750f98000002eb00341f980082
:10136c00160137006e029000be1a9000042add00b0
:10137c00cfa2de0004179800151798000e129000eb
:10138c009e1290000410b0000580b000040278009a
:10139c0084024200e429280004824200940278006e
:1013ac00251798000e12900084024200e4292800b0
:1013bc0004824200140278000402ea0034179800f8
:1013cc002e1290000482d100241798003e12900037
:1013dc000482d100341798003e1a9000cfa2de0090
:1013ec002407980035079800ea0037002e03900078
:1013fc00be0390004e029000de02900006024200f6
:10140c0087824a0004179800151798002e12900036
:10141c006123b9000e129000040242009e1a900043
:10142c000482420014027800cfa2de0004b8b90096
:10143c000000780006a9b900820078000100400085
:10144c0006037800040278000432b800050040005e
:10145c00800278004417980055179800441798009c
:10146c00551798004e129000de129000422bdd00b2
:10147c004e22de0004027300ceaade004417980050
:10148c00551798004e129000610262006417980084
:10149c004e129000de1290008582d1000482d3009f
:1014ac00840278006e12900004824200440f98006f
:1014bc003e1290006123b9000e129000040242000b
:1014cc00ae1a90000482420014027800cfa2de0013
:1014dc0004b8b9000000780006a9b90082007800b1
:1014ec000100400006037800040278000432b800c2
:1014fc0005004000800278004417980055179800aa
:10150c0044179800551798004e129000de12900068
:10151c00422bdd004e22de0004027300ceaade0058
:10152c0044179800551798004e1290006102620003
:10153c00641798004e0b90004e129000de12900033
:10154c008582d1000482d300840278006e12900050
:10155c000482420004025300440f98002e129000a3
:10156c006123b9000e12900004024200ae1a9000e2
:10157c000482420014027800cfa2de0004b8b90045
:10158c000000780006a9b900820078000100400034
:10159c0006037800040278000432b800050040000d
:1015ac00800278004417980055179800441798004b
:1015bc00551798004e129000de129000422bdd0061
:1015cc004e22de0004027300ceaade0044179800ff
:1015dc00551798004e129000610262006417980033
:1015ec004e129000de1290008582d1000482d3004e
:1015fc00840278006e12900004824200540f98000e
:10160c003e1290006123b9000e12900004024200b9
:10161c009e1a90000482420014027800cfa2de00d1
:10162c0004b8b9000000780006a9b900820078005f
:10163c000100400006037800040278000432b80070
:10164c000500400080027800441798005517980058
:10165c0044179800551798004e129000de12900017
:10166c00422bdd004e22de0004027300ceaade0007
:10167c0044179800551798004e12900061026200b2
:10168c00641798004e129000de1290008582d100f3
:10169c000482d300840278006e129000848242008f
:1016ac005e0a900004824200540f98002e029000b3
:1016bc00040242009e1a90000482420094027800b8
:1016cc00751798002e02900004024200ae1a90008a
:1016dc000482420014037800061f98007e129000ca
:1016ec000482d100741798000e1a90000482d10065
:1016fc00041f98000e129000040242009e1a9000e3
:10170c00048242007e139000ce0a900085025300a2
:10171c00050a78000e12900004024200ae1a9000e6
:10172c00048242000e1b9000de0a900085025300da
:10173c00050a78002e029000040242009e1a9000c6
:10174c00048242007e139000ce0a90008502430072
:10175c00050a78002e02900004024200ae1a900096
:10176c00048242000e1b9000de0a900085024300aa
:10177c00050a78002e039000be0390006e0a9000bc
:10178c00fe0a90000602420087824a002407980055
:10179c00350798002e039000be0390000e0a9000af
:1017ac009e0a9000840f5300858f5b000fff35005d
:1017bc003e1a90000402e800341f98003e1a900074
:1017cc006123b9004e029000de029000840f53009a
:1017dc00858f5b00e3fe35006e029000fe029000e8
:1017ec0061025200e0825a00640798007507980065
:1017fc006e0a9000fe0a9000440798005507980066
:10180c004e039000de0390000e0a90009e0a90009a
:10181c00840f5300858f5b00c9fe35000080fa00f1
:0c182c00000006000000fa00ffff37007b
:020000040000fa
:0418380000000000ac
:00000001FF
